{
  "contractName": "Voting",
  "abi": [
    {
      "inputs": [],
      "payable": false,
      "stateMutability": "nonpayable",
      "type": "constructor"
    },
    {
      "constant": true,
      "inputs": [],
      "name": "get_candidate_number",
      "outputs": [
        {
          "name": "",
          "type": "uint256"
        }
      ],
      "payable": false,
      "stateMutability": "view",
      "type": "function"
    },
    {
      "constant": true,
      "inputs": [
        {
          "name": "id",
          "type": "uint256"
        }
      ],
      "name": "get_candidate_info",
      "outputs": [
        {
          "name": "",
          "type": "string"
        }
      ],
      "payable": false,
      "stateMutability": "view",
      "type": "function"
    },
    {
      "constant": false,
      "inputs": [
        {
          "name": "name",
          "type": "string"
        }
      ],
      "name": "register_candidate",
      "outputs": [
        {
          "name": "status",
          "type": "uint256"
        }
      ],
      "payable": false,
      "stateMutability": "nonpayable",
      "type": "function"
    },
    {
      "constant": false,
      "inputs": [],
      "name": "register_voter",
      "outputs": [
        {
          "name": "status",
          "type": "uint256"
        }
      ],
      "payable": false,
      "stateMutability": "nonpayable",
      "type": "function"
    },
    {
      "constant": false,
      "inputs": [
        {
          "name": "candidate_name",
          "type": "string"
        }
      ],
      "name": "vote",
      "outputs": [
        {
          "name": "status",
          "type": "uint256"
        }
      ],
      "payable": false,
      "stateMutability": "nonpayable",
      "type": "function"
    },
    {
      "constant": true,
      "inputs": [],
      "name": "get_results",
      "outputs": [
        {
          "name": "",
          "type": "string"
        }
      ],
      "payable": false,
      "stateMutability": "view",
      "type": "function"
    }
  ],
  "bytecode": "0x608060405234801561001057600080fd5b504260048190555060006003819055506078600581905550607860068190555060786007819055506078600881905550610ee98061004f6000396000f300608060405260043610610078576000357c0100000000000000000000000000000000000000000000000000000000900463ffffffff16806306910e231461007d57806307eaf452146100a8578063334c613c1461014e5780634af5f65214610179578063daa53fa8146101f6578063fc36e15b14610286575b600080fd5b34801561008957600080fd5b50610092610303565b6040518082815260200191505060405180910390f35b3480156100b457600080fd5b506100d36004803603810190808035906020019092919050505061030d565b6040518080602001828103825283818151815260200191508051906020019080838360005b838110156101135780820151818401526020810190506100f8565b50505050905090810190601f1680156101405780820380516001836020036101000a031916815260200191505b509250505060405180910390f35b34801561015a57600080fd5b506101636103cb565b6040518082815260200191505060405180910390f35b34801561018557600080fd5b506101e0600480360381019080803590602001908201803590602001908080601f016020809104026020016040519081016040528093929190818152602001838380828437820191505050505050919291929050505061058e565b6040518082815260200191505060405180910390f35b34801561020257600080fd5b5061020b6107a2565b6040518080602001828103825283818151815260200191508051906020019080838360005b8381101561024b578082015181840152602081019050610230565b50505050905090810190601f1680156102785780820380516001836020036101000a031916815260200191505b509250505060405180910390f35b34801561029257600080fd5b506102ed600480360381019080803590602001908201803590602001908080601f0160208091040260200160405190810160405280939291908181526020018383808284378201915050505050509192919290505050610b6b565b6040518082815260200191505060405180910390f35b6000600354905090565b606060008281548110151561031e57fe5b906000526020600020016000018054600181600116156101000203166002900480601f0160208091040260200160405190810160405280929190818152602001828054600181600116156101000203166002900480156103bf5780601f10610394576101008083540402835291602001916103bf565b820191906000526020600020905b8154815290600101906020018083116103a257829003601f168201915b50505050509050919050565b60006005546004540142111515610470576040517f08c379a00000000000000000000000000000000000000000000000000000000081526004018080602001828103825260248152602001807f566f74657220726567697374726174696f6e2070686173652079657420746f2081526020017f636f6d650000000000000000000000000000000000000000000000000000000081525060400191505060405180910390fd5b6006546005546004540101421015156104f1576040517f08c379a00000000000000000000000000000000000000000000000000000000081526004018080602001828103825260188152602001807f566f74657220726573697374726174696f6e20656e646564000000000000000081525060200191505060405180910390fd5b6000600160003373ffffffffffffffffffffffffffffffffffffffff1673ffffffffffffffffffffffffffffffffffffffff168152602001908152602001600020541115610542576000905061058b565b60018060003373ffffffffffffffffffffffffffffffffffffffff1673ffffffffffffffffffffffffffffffffffffffff16815260200190815260200160002081905550600190505b90565b6000610598610e04565b600554600454014210151561063b576040517f08c379a00000000000000000000000000000000000000000000000000000000081526004018080602001828103825260228152602001807f43616e64696461746520726567697374726174696f6e20706861736520656e6481526020017f656400000000000000000000000000000000000000000000000000000000000081525060400191505060405180910390fd5b60006002846040518082805190602001908083835b6020831015156106755780518252602082019150602081019050602083039250610650565b6001836020036101000a03801982511681845116808217855250505050505090500191505090815260200160405180910390205411156106b8576000915061079c565b6020604051908101604052808481525090506000819080600181540180825580915050906001820390600052602060002001600090919290919091506000820151816000019080519060200190610710929190610e18565b5050505060016002846040518082805190602001908083835b60208310151561074e5780518252602082019150602081019050602083039250610729565b6001836020036101000a038019825116818451168082178552505050505050905001915050908152602001604051809103902081905550600360008154809291906001019190505550600191505b50919050565b60606000606060008060075460065460055460045401010142111515610856576040517f08c379a00000000000000000000000000000000000000000000000000000000081526004018080602001828103825260248152602001807f526573756c74206465636c61726174696f6e2070686173652079657420746f2081526020017f636f6d650000000000000000000000000000000000000000000000000000000081525060400191505060405180910390fd5b600093506040805190810160405280600481526020017f4e6f6e650000000000000000000000000000000000000000000000000000000081525092506000805490509150600090505b81811015610b615760026000828154811015156108b857fe5b9060005260206000200160000160405180828054600181600116156101000203166002900480156109205780601f106108fe576101008083540402835291820191610920565b820191906000526020600020905b81548152906001019060200180831161090c575b5050915050908152602001604051809103902054841015610a8657600260008281548110151561094c57fe5b9060005260206000200160000160405180828054600181600116156101000203166002900480156109b45780601f106109925761010080835404028352918201916109b4565b820191906000526020600020905b8154815290600101906020018083116109a0575b505091505090815260200160405180910390205493506000818154811015156109d957fe5b906000526020600020016000018054600181600116156101000203166002900480601f016020809104026020016040519081016040528092919081815260200182805460018160011615610100020316600290048015610a7a5780601f10610a4f57610100808354040283529160200191610a7a565b820191906000526020600020905b815481529060010190602001808311610a5d57829003601f168201915b50505050509250610b54565b6002600082815481101515610a9757fe5b906000526020600020016000016040518082805460018160011615610100020316600290048015610aff5780601f10610add576101008083540402835291820191610aff565b820191906000526020600020905b815481529060010190602001808311610aeb575b5050915050908152602001604051809103902054841415610b53576040805190810160405280601281526020017f4e6f20646566696e6974652077696e6e6572000000000000000000000000000081525092505b5b808060010191505061089f565b8294505050505090565b6000600654600554600454010142111515610bee576040517f08c379a00000000000000000000000000000000000000000000000000000000081526004018080602001828103825260188152602001807f566f74696e672070686173652079657420746f20636f6d65000000000000000081525060200191505060405180910390fd5b60075460065460055460045401010142101515610c73576040517f08c379a00000000000000000000000000000000000000000000000000000000081526004018080602001828103825260138152602001807f566f74696e6720706572696f6420656e6465640000000000000000000000000081525060200191505060405180910390fd5b60016002836040518082805190602001908083835b602083101515610cad5780518252602082019150602081019050602083039250610c88565b6001836020036101000a0380198251168184511680821785525050505050509050019150509081526020016040518091039020541080610d2c575060018060003373ffffffffffffffffffffffffffffffffffffffff1673ffffffffffffffffffffffffffffffffffffffff1681526020019081526020016000205414155b15610d3a5760009050610dff565b6002600160003373ffffffffffffffffffffffffffffffffffffffff1673ffffffffffffffffffffffffffffffffffffffff168152602001908152602001600020819055506002826040518082805190602001908083835b602083101515610db75780518252602082019150602081019050602083039250610d92565b6001836020036101000a038019825116818451168082178552505050505050905001915050908152602001604051809103902060008154809291906001019190505550600190505b919050565b602060405190810160405280606081525090565b828054600181600116156101000203166002900490600052602060002090601f016020900481019282601f10610e5957805160ff1916838001178555610e87565b82800160010185558215610e87579182015b82811115610e86578251825591602001919060010190610e6b565b5b509050610e949190610e98565b5090565b610eba91905b80821115610eb6576000816000905550600101610e9e565b5090565b905600a165627a7a7230582065949afcec3dd360740e19a0e89f862bcb2965f5365fe57a21289c318f65f81b0029",
  "source": "pragma solidity ^0.4.0;\r\n/*\r\nuse asserts for over or underflow checks\r\nuse events, if necessary\r\nQuestions:\r\n1. can unregistered voters see results?\r\n2. can registered candidates vote?\r\n3. what to do if votes are tied?\r\n4. should show number of votes of all candidates, or just show winner, and point 3?\r\n*/\r\ncontract Voting {\r\n    /// candidate structure\r\n    /// votes have the total number of votes candidate secured\r\n    struct Candidate {\r\n        string name;\r\n        // uint votes;\r\n    }\r\n        \r\n    /// array of candidates\r\n    Candidate[] candidates;\r\n    /// mapping of voter to has_voted\r\n    mapping(address => uint) voter;\r\n    /// mapping of candidate to number_of_votes\r\n    mapping(string => uint) votes;\r\n    /// number of candidates\r\n    uint num_candidates;\r\n    \r\n    /// time and phase constants\r\n    uint starting_phase;\r\n    uint candidate_registration_phase;\r\n    uint voter_registration_phase;\r\n    uint voting_phase;\r\n    uint result_declaration_phase;\r\n    \r\n    constructor () public {\r\n        starting_phase = now;\r\n        num_candidates = 0;\r\n        candidate_registration_phase = 2 * 60; // 5 minutes * 60 seconds per minute\r\n        voter_registration_phase = 2 * 60; // 5 minutes * 60 seconds per minute\r\n        voting_phase = 2 * 60; // 5 minutes * 60 seconds per minute\r\n        result_declaration_phase = 2 * 60; // 5 minutes * 60 seconds per minute\r\n        \r\n        /*\r\n        INITIALIZATION INSTRUCTIONS:\r\n        ->  every candidate registered will have initial votes = 1\r\n            so that unregistered candidates will have initial votes = 0,\r\n            easy to differentiate\r\n            This is applicable to all candidates, and since all have same starting\r\n            point, the relative count of votes is unchanged\r\n        \r\n        ->  every registered voter will have vote = 1\r\n            so that unregistered candidates will have vote = 0,\r\n            and after voting, vote = 2,\r\n            easy to differentiate\r\n        */\r\n    }\r\n    \r\n    // modifiers\r\n    \r\n    modifier candidate_registration() {\r\n        require(\r\n            now < starting_phase + candidate_registration_phase,\r\n            \"Candidate registration phase ended\"\r\n            );\r\n        _;\r\n    }\r\n    \r\n    modifier voter_registration() {\r\n        require(\r\n            now > starting_phase + candidate_registration_phase,\r\n            \"Voter registration phase yet to come\"\r\n            );\r\n        require(\r\n            now < starting_phase + candidate_registration_phase + voter_registration_phase,\r\n            \"Voter resistration ended\"\r\n            );\r\n        _;\r\n    }\r\n    \r\n    modifier voting_period() {\r\n        require(\r\n            now > starting_phase + candidate_registration_phase + voter_registration_phase,\r\n            \"Voting phase yet to come\"\r\n            );\r\n        require(\r\n            now < starting_phase + candidate_registration_phase + voter_registration_phase + voting_phase,\r\n            \"Voting period ended\"\r\n            );\r\n        _;\r\n    }\r\n    \r\n    modifier result_declaration() {\r\n        require(\r\n            now > starting_phase + candidate_registration_phase + voter_registration_phase + voting_phase,\r\n            \"Result declaration phase yet to come\"\r\n            );\r\n        _;\r\n    }\r\n    \r\n    // Getter functions\r\n    \r\n    function get_candidate_number() \r\n        public \r\n        constant \r\n        returns (uint) {\r\n        return num_candidates;\r\n    }\r\n    \r\n    function get_candidate_info(uint id) \r\n        public \r\n        constant \r\n        returns (string) {\r\n        // can be modified later to give out more details\r\n        return candidates[id].name;\r\n    }\r\n    \r\n    // State Changing Functions\r\n    \r\n    function register_candidate(string name) \r\n        public \r\n        candidate_registration()\r\n        returns (uint status) {\r\n            /*\r\n            0, if unsuccessful\r\n            1, otherwise\r\n            */\r\n        // check if already exists, should change to require?\r\n        if(votes[name] > 0) {\r\n            status = 0;\r\n        }\r\n        else {\r\n            Candidate memory newCandidate = Candidate(name); // ...name,0);\r\n            candidates.push(newCandidate);\r\n            votes[name] = 1;\r\n            num_candidates++;\r\n            status = 1;\r\n        }\r\n    }\r\n    \r\n    function register_voter() \r\n        public \r\n        voter_registration()\r\n        returns (uint status) {\r\n            /*\r\n            0, if unsuccessful\r\n            1, otherwise\r\n            */\r\n        // check if already exists, should change to require?\r\n        if(voter[msg.sender] > 0) {\r\n            status = 0;\r\n        }\r\n        else {\r\n            voter[msg.sender] = 1;\r\n            status = 1;\r\n        }\r\n    }\r\n    \r\n    function vote(string candidate_name) \r\n        public \r\n        voting_period()\r\n        returns (uint status) {\r\n            /*\r\n            0, if unsuccessful\r\n            1, otherwise\r\n            */\r\n        if(votes[candidate_name] < 1 || voter[msg.sender] != 1)\r\n        {\r\n            status = 0;\r\n        }\r\n        else {\r\n            voter[msg.sender] = 2;\r\n            votes[candidate_name]++;\r\n            status = 1;\r\n        }\r\n    }\r\n    \r\n    function get_results() \r\n        public \r\n        constant \r\n        result_declaration()\r\n        returns (string) {\r\n       uint max_votes = 0;\r\n       string memory winner = \"None\";\r\n       uint n = candidates.length;\r\n       for( uint i=0; i<n; i++)\r\n       {\r\n           if(max_votes < votes[candidates[i].name])\r\n           {\r\n               max_votes = votes[candidates[i].name];\r\n               winner = candidates[i].name;\r\n           }\r\n           else if (max_votes == votes[candidates[i].name])\r\n           {\r\n               winner = \"No definite winner\";\r\n           }\r\n       }\r\n       return winner;\r\n    }\r\n}",
  "sourcePath": "/mnt/f/study/creations/blockchain/Voting-Dapp/contracts/Voting.sol",
  "compiler": {
    "name": "solc",
    "version": "0.4.24+commit.e67f0147.Emscripten.clang"
  },
  "schemaVersion": "2.0.1",
  "updatedAt": "2018-10-26T13:42:54.737Z"
}