{
  "contractName": "Voting",
  "abi": [
    {
      "inputs": [],
      "payable": false,
      "stateMutability": "nonpayable",
      "type": "constructor"
    },
    {
      "anonymous": false,
      "inputs": [
        {
          "indexed": false,
          "name": "candidateID",
          "type": "uint256"
        }
      ],
      "name": "AddedCandidate",
      "type": "event"
    },
    {
      "constant": false,
      "inputs": [
        {
          "name": "name",
          "type": "bytes32"
        },
        {
          "name": "party",
          "type": "bytes32"
        }
      ],
      "name": "addCandidate",
      "outputs": [],
      "payable": false,
      "stateMutability": "nonpayable",
      "type": "function"
    },
    {
      "constant": false,
      "inputs": [
        {
          "name": "uid",
          "type": "bytes32"
        },
        {
          "name": "candidateID",
          "type": "uint256"
        }
      ],
      "name": "vote",
      "outputs": [],
      "payable": false,
      "stateMutability": "nonpayable",
      "type": "function"
    },
    {
      "constant": true,
      "inputs": [
        {
          "name": "candidateID",
          "type": "uint256"
        }
      ],
      "name": "totalVotes",
      "outputs": [
        {
          "name": "",
          "type": "uint256"
        }
      ],
      "payable": false,
      "stateMutability": "view",
      "type": "function"
    },
    {
      "constant": true,
      "inputs": [],
      "name": "getNumOfCandidates",
      "outputs": [
        {
          "name": "",
          "type": "uint256"
        }
      ],
      "payable": false,
      "stateMutability": "view",
      "type": "function"
    },
    {
      "constant": true,
      "inputs": [],
      "name": "getNumOfVoters",
      "outputs": [
        {
          "name": "",
          "type": "uint256"
        }
      ],
      "payable": false,
      "stateMutability": "view",
      "type": "function"
    },
    {
      "constant": true,
      "inputs": [],
      "name": "getStartTime",
      "outputs": [
        {
          "name": "",
          "type": "uint256"
        }
      ],
      "payable": false,
      "stateMutability": "view",
      "type": "function"
    },
    {
      "constant": true,
      "inputs": [],
      "name": "getRegPhase",
      "outputs": [
        {
          "name": "",
          "type": "uint256"
        }
      ],
      "payable": false,
      "stateMutability": "view",
      "type": "function"
    },
    {
      "constant": true,
      "inputs": [],
      "name": "getVotePhase",
      "outputs": [
        {
          "name": "",
          "type": "uint256"
        }
      ],
      "payable": false,
      "stateMutability": "view",
      "type": "function"
    },
    {
      "constant": true,
      "inputs": [
        {
          "name": "candidateID",
          "type": "uint256"
        }
      ],
      "name": "getCandidate",
      "outputs": [
        {
          "name": "",
          "type": "uint256"
        },
        {
          "name": "",
          "type": "bytes32"
        },
        {
          "name": "",
          "type": "bytes32"
        }
      ],
      "payable": false,
      "stateMutability": "view",
      "type": "function"
    }
  ],
  "bytecode": "0x608060405234801561001057600080fd5b50336000806101000a81548173ffffffffffffffffffffffffffffffffffffffff021916908373ffffffffffffffffffffffffffffffffffffffff1602179055504260018190555061012c60028190555061012c6003819055506105da806100796000396000f300608060405260043610610099576000357c0100000000000000000000000000000000000000000000000000000000900463ffffffff16806319e6e1581461009e57806324090ff9146100df57806335b8e8201461010a57806365fc783c1461016957806374dd278c146101945780639ef1204c146101bf578063a1adbb25146101fa578063c828371e14610239578063e8685ba114610264575b600080fd5b3480156100aa57600080fd5b506100c96004803603810190808035906020019092919050505061028f565b6040518082815260200191505060405180910390f35b3480156100eb57600080fd5b506100f46102b4565b6040518082815260200191505060405180910390f35b34801561011657600080fd5b50610135600480360381019080803590602001909291905050506102be565b6040518084815260200183600019166000191681526020018260001916600019168152602001935050505060405180910390f35b34801561017557600080fd5b5061017e6102ff565b6040518082815260200191505060405180910390f35b3480156101a057600080fd5b506101a9610309565b6040518082815260200191505060405180910390f35b3480156101cb57600080fd5b506101f8600480360381019080803560001916906020019092919080359060200190929190505050610313565b005b34801561020657600080fd5b5061023760048036038101908080356000191690602001909291908035600019169060200190929190505050610489565b005b34801561024557600080fd5b5061024e61059a565b6040518082815260200191505060405180910390f35b34801561027057600080fd5b506102796105a4565b6040518082815260200191505060405180910390f35b6000806006600084815260200190815260200160002060020154905080915050919050565b6000600254905090565b600080600083600660008681526020019081526020016000206000015460066000878152602001908152602001600020600101549250925092509193909250565b6000600554905090565b6000600354905090565b6004548110156104855760006008600084600019166000191681526020019081526020016000205414156103bf5760066000828152602001908152602001600020600201600081548092919060010191905055506001600860008460001916600019168152602001908152602001600020819055508060096000846000191660001916815260200190815260200160002081905550600560008154809291906001019190505550610484565b600660006009600085600019166000191681526020019081526020016000205481526020019081526020016000206002016000815480929190600190039190505550600160086000846000191660001916815260200190815260200160002081905550806009600084600019166000191681526020019081526020016000208190555060066000600960008560001916600019168152602001908152602001600020548152602001908152602001600020600201600081548092919060010191905055505b5b5050565b60008060009054906101000a900473ffffffffffffffffffffffffffffffffffffffff1673ffffffffffffffffffffffffffffffffffffffff163373ffffffffffffffffffffffffffffffffffffffff161415156104e657600080fd5b6004600081548092919060010191905055905060606040519081016040528084600019168152602001836000191681526020016000815250600660008381526020019081526020016000206000820151816000019060001916905560208201518160010190600019169055604082015181600201559050507fec542c373a064661ffef02d633752debf28f3e6c9f253680822d9ccf8b47aec6816040518082815260200191505060405180910390a1505050565b6000600154905090565b60006004549050905600a165627a7a72305820b2f44c99e00a378714256526841344e17d64da569d32015d18c2670923d387d80029",
  "source": "    pragma solidity ^0.4.18;\n    // written for Solidity version 0.4.18 and above that doesnt break functionality\n     \n    contract Voting {\n        // an event that is called whenever a Candidate is added so the frontend could\n        // appropriately display the candidate with the right element id (it is used\n        // to vote for the candidate, since it is one of arguments for the function \"vote\")\n        event AddedCandidate(uint candidateID);\n     \n        // describes a Voter, which has an id and the ID of the candidate they voted for\n        address owner;\n        uint start;\n        uint regPhase;\n        uint votePhase;\n        \n        // function for voting\n        function Voting()public {\n            owner=msg.sender;\n            start=now;\n            regPhase=5*60;\n            votePhase=5*60;\n        }\n        modifier onlyOwner {\n            require(msg.sender == owner);\n            _;\n        }\n        // describes a voter\n        struct Voter {\n            bytes32 uid; // bytes32 type are basically strings\n            uint candidateIDVote;\n        }\n        // describes a Candidate\n        struct Candidate {\n            bytes32 name;\n            bytes32 party; \n            // \"bool doesExist\" is to check if this Struct exists\n            // This is so we can keep track of the candidates \n            uint votes; \n        }\n     \n        // These state variables are used keep track of the number of Candidates/Voters \n        // and used to as a way to index them     \n        uint numCandidates; // declares a state variable - number Of Candidates\n        uint numVoters;\n     \n     \n        // Think of these as a hash table, with the key as a uint and value of \n        // the struct Candidate/Voter. These mappings will be used in the majority\n        // of our transactions/calls\n        // These mappings will hold all the candidates and Voters respectively\n        mapping (uint => Candidate) candidates;\n        mapping (uint => Voter) voters;\n        mapping (bytes32 => uint) hasVoted;\n        mapping (bytes32 => uint) votedWho;\n        \n     \n        /* * * * * * * * * * * * * * * * * * * * * * * * * * * * * * * *\n         *  These functions perform transactions, editing the mappings *\n         * * * * * * * * * * * * * * * * * * * * * * * * * * * * * * * */\n     \n        function addCandidate(bytes32 name, bytes32 party) onlyOwner public {\n            // candidateID is the return variable\n            uint candidateID = numCandidates++;\n            // Create new Candidate Struct with name and saves it to storage.\n            candidates[candidateID] = Candidate(name,party,0);\n            AddedCandidate(candidateID);\n        }\n     \n        function vote(bytes32 uid, uint candidateID) public {\n            // checks if the struct exists for that candidate\n            if (candidateID < numCandidates) {\n                if(hasVoted[uid] == 0){\n                    candidates[candidateID].votes++;\n                    hasVoted[uid] = 1;\n                    votedWho[uid] = candidateID;\n                    numVoters++;\n                }\n                else {\n                    candidates[votedWho[uid]].votes--;\n                    hasVoted[uid] = 1;\n                    votedWho[uid] = candidateID;\n                    candidates[votedWho[uid]].votes++;\n                }\n            }\n        }\n     \n        /* * * * * * * * * * * * * * * * * * * * * * * * * * \n         *  Getter Functions, marked by the key word \"view\" *\n         * * * * * * * * * * * * * * * * * * * * * * * * * */\n     \n     \n        // finds the total amount of votes for a specific candidate by looping\n        // through voters \n        function totalVotes(uint candidateID) view public returns (uint) {\n            uint numOfVotes = candidates[candidateID].votes;\n            return numOfVotes; \n        }\n        \n        // function to get number of candidates\n        function getNumOfCandidates() public view returns(uint) {\n            return numCandidates;\n        }\n        \n        // function to get number of voters\n        function getNumOfVoters() public view returns(uint) {\n            return numVoters;\n        }\n        \n        \n        // function to get start time.\n        function getStartTime() public view returns(uint) {\n            return start;\n        }\n        \n        // function to get the length of registration period\n        function getRegPhase() public view returns(uint) {\n            return regPhase;\n        }\n        \n        // function to get the length of voting period.\n        function getVotePhase() public view returns(uint) {\n            return  votePhase;\n        }\n        // returns candidate information, including its ID, name, and party\n        function getCandidate(uint candidateID) public view returns (uint,bytes32, bytes32) {\n            return (candidateID,candidates[candidateID].name,candidates[candidateID].party);\n        }\n    }\n",
  "sourcePath": "/home/grv/Desktop/eth-voting-dapp (copy)/contracts/Voting.sol",
  "compiler": {
    "name": "solc",
    "version": "0.4.24+commit.e67f0147.Emscripten.clang"
  },
  "schemaVersion": "2.0.1",
  "updatedAt": "2018-11-23T05:41:40.288Z"
}